:1000000033C0000041C000003FC000003DC0000000
:100010003BC0000039C0000037C0000035C0000000
:1000200033C0000031C000002FC000002DC0000010
:100030002BC0000029C0000027C0000025C0000020
:10004000D0C0000021C000001FC000001DC0000083
:100050001BC0000019C0000017C0000015C0000040
:1000600013C0000011C0000011241FBECFEFD8E064
:10007000DEBFCDBF21E0A0E0B1E001C01D92A23003
:10008000B207E1F702D010C1BBCF95D022D09AD0F1
:10009000CDD087E690E041D0BBD0892B89F081E0BC
:1000A000C3D088E090E020D0EC0187EA91E6019788
:1000B000F1F700C00000CE01C4D0CE0141D0ECCF9A
:1000C00080E0B2D087EA91E60197F1F700C0000026
:1000D000E3CFECE7F0E0808180648083EAE7F0E042
:1000E0008081806880830895ECE7F0E02081287F9C
:1000F0002083208187709927822B8083EAE7F0E0B4
:10010000808180648083808184FFFDCF80917A002C
:10011000809178009091790008958093C400909325
:10012000C50086E48093C20088ED8093C1000895E5
:10013000E0ECF0E0908195FFFDCF8093C60008953C
:100140009C0121503109283C310548F484E1F0DF5D
:1001500087EA91E60197F1F700C0000008959C013D
:10016000225D31092332314048F489E1E1DF87EA39
:1001700091E60197F1F700C0000008959C012E5F01
:1001800031402F3B310548F48DE1D2DF87EA91E61B
:100190000197F1F700C000000895865C92408B3310
:1001A000914040F481E2C4DF87EA91E60197F1F7DC
:1001B00000C000000895209A219A5098589A5198AA
:1001C000599A089585B5846085BD16BCEEE6F0E0C9
:1001D00080818160808378941092010110920001E7
:1001E00008951F920F920FB60F9211248F939F9331
:1001F00080910001909101010196909301018093FB
:1002000000019F918F910F900FBE0F901F90189536
:10021000489907C089B1869591E08927817090E05F
:10022000089580E090E0089585B90895E0E8F0E051
:10023000808183688083E1E8F0E080818B60808347
:1002400008959C0121503109283C310538F48DEC8A
:1002500090E0909389008093880008959C01225D2E
:1002600031092332314038F48AE991E090938900D2
:100270008093880008959C012E5F31402F3B31050B
:1002800038F48DEC92E09093890080938800089573
:10029000865C92408B33914030F48DEC93E09093E8
:0C02A0008900809388000895F894FFCF37
:00000001FF
